{
  "_format": "hh-sol-artifact-1",
  "contractName": "Escrow",
  "sourceName": "contracts/Escrow.sol",
  "abi": [
    {
      "inputs": [
        {
          "internalType": "address",
          "name": "_nftContractAddress",
          "type": "address"
        },
        {
          "internalType": "address",
          "name": "_inspector",
          "type": "address"
        },
        {
          "internalType": "address payable",
          "name": "_seller",
          "type": "address"
        }
      ],
      "stateMutability": "nonpayable",
      "type": "constructor"
    },
    {
      "anonymous": false,
      "inputs": [
        {
          "indexed": false,
          "internalType": "uint256",
          "name": "nftID",
          "type": "uint256"
        }
      ],
      "name": "InspectionApproved",
      "type": "event"
    },
    {
      "anonymous": false,
      "inputs": [
        {
          "indexed": false,
          "internalType": "uint256",
          "name": "nftID",
          "type": "uint256"
        }
      ],
      "name": "InspectionCreated",
      "type": "event"
    },
    {
      "anonymous": false,
      "inputs": [
        {
          "indexed": false,
          "internalType": "uint256",
          "name": "nftID",
          "type": "uint256"
        }
      ],
      "name": "InspectionRejected",
      "type": "event"
    },
    {
      "anonymous": false,
      "inputs": [
        {
          "indexed": false,
          "internalType": "uint256",
          "name": "nftID",
          "type": "uint256"
        }
      ],
      "name": "SaleCompleted",
      "type": "event"
    },
    {
      "anonymous": false,
      "inputs": [
        {
          "indexed": false,
          "internalType": "uint256",
          "name": "nftID",
          "type": "uint256"
        }
      ],
      "name": "SaleDeclined",
      "type": "event"
    },
    {
      "anonymous": false,
      "inputs": [
        {
          "indexed": false,
          "internalType": "uint256",
          "name": "nftID",
          "type": "uint256"
        }
      ],
      "name": "SellerApproved",
      "type": "event"
    },
    {
      "anonymous": false,
      "inputs": [
        {
          "indexed": false,
          "internalType": "uint256",
          "name": "nftID",
          "type": "uint256"
        }
      ],
      "name": "SellerDeclined",
      "type": "event"
    },
    {
      "inputs": [
        {
          "internalType": "uint256",
          "name": "_nftID",
          "type": "uint256"
        }
      ],
      "name": "approveInspection",
      "outputs": [],
      "stateMutability": "nonpayable",
      "type": "function"
    },
    {
      "inputs": [
        {
          "internalType": "uint256",
          "name": "_nftID",
          "type": "uint256"
        }
      ],
      "name": "approveSale",
      "outputs": [],
      "stateMutability": "nonpayable",
      "type": "function"
    },
    {
      "inputs": [
        {
          "internalType": "uint256",
          "name": "_nftID",
          "type": "uint256"
        }
      ],
      "name": "calculateDownPayment",
      "outputs": [
        {
          "internalType": "uint256",
          "name": "",
          "type": "uint256"
        }
      ],
      "stateMutability": "view",
      "type": "function"
    },
    {
      "inputs": [
        {
          "internalType": "uint256",
          "name": "_nftID",
          "type": "uint256"
        }
      ],
      "name": "completePurchase",
      "outputs": [],
      "stateMutability": "payable",
      "type": "function"
    },
    {
      "inputs": [
        {
          "internalType": "uint256",
          "name": "_nftID",
          "type": "uint256"
        }
      ],
      "name": "declinePurchase",
      "outputs": [],
      "stateMutability": "nonpayable",
      "type": "function"
    },
    {
      "inputs": [
        {
          "internalType": "uint256",
          "name": "_nftID",
          "type": "uint256"
        }
      ],
      "name": "declineSale",
      "outputs": [],
      "stateMutability": "nonpayable",
      "type": "function"
    },
    {
      "inputs": [],
      "name": "getBalance",
      "outputs": [
        {
          "internalType": "uint256",
          "name": "",
          "type": "uint256"
        }
      ],
      "stateMutability": "view",
      "type": "function"
    },
    {
      "inputs": [
        {
          "internalType": "address",
          "name": "_address",
          "type": "address"
        }
      ],
      "name": "getListingsPendingFinalBuyerPayment",
      "outputs": [
        {
          "internalType": "uint256[]",
          "name": "",
          "type": "uint256[]"
        }
      ],
      "stateMutability": "view",
      "type": "function"
    },
    {
      "inputs": [
        {
          "internalType": "address",
          "name": "_address",
          "type": "address"
        }
      ],
      "name": "getListingsPendingInspection",
      "outputs": [
        {
          "internalType": "uint256[]",
          "name": "",
          "type": "uint256[]"
        }
      ],
      "stateMutability": "view",
      "type": "function"
    },
    {
      "inputs": [
        {
          "internalType": "address",
          "name": "_address",
          "type": "address"
        }
      ],
      "name": "getListingsPendingSale",
      "outputs": [
        {
          "internalType": "uint256[]",
          "name": "",
          "type": "uint256[]"
        }
      ],
      "stateMutability": "view",
      "type": "function"
    },
    {
      "inputs": [
        {
          "internalType": "address",
          "name": "_userAddress",
          "type": "address"
        }
      ],
      "name": "getUserType",
      "outputs": [
        {
          "internalType": "string",
          "name": "",
          "type": "string"
        }
      ],
      "stateMutability": "view",
      "type": "function"
    },
    {
      "inputs": [],
      "name": "inspector",
      "outputs": [
        {
          "internalType": "address",
          "name": "",
          "type": "address"
        }
      ],
      "stateMutability": "view",
      "type": "function"
    },
    {
      "inputs": [
        {
          "internalType": "uint256",
          "name": "_nftID",
          "type": "uint256"
        },
        {
          "internalType": "uint256",
          "name": "_purchasePrice",
          "type": "uint256"
        }
      ],
      "name": "list",
      "outputs": [],
      "stateMutability": "payable",
      "type": "function"
    },
    {
      "inputs": [],
      "name": "listingCount",
      "outputs": [
        {
          "internalType": "uint256",
          "name": "",
          "type": "uint256"
        }
      ],
      "stateMutability": "view",
      "type": "function"
    },
    {
      "inputs": [
        {
          "internalType": "uint256",
          "name": "",
          "type": "uint256"
        }
      ],
      "name": "listings",
      "outputs": [
        {
          "internalType": "enum Escrow.ListingStatus",
          "name": "status",
          "type": "uint8"
        },
        {
          "components": [
            {
              "internalType": "address",
              "name": "inspector",
              "type": "address"
            }
          ],
          "internalType": "struct Escrow.Approval",
          "name": "approval",
          "type": "tuple"
        },
        {
          "internalType": "address",
          "name": "seller",
          "type": "address"
        },
        {
          "internalType": "address",
          "name": "buyer",
          "type": "address"
        },
        {
          "internalType": "uint256",
          "name": "purchasePrice",
          "type": "uint256"
        },
        {
          "internalType": "uint256",
          "name": "downPayment",
          "type": "uint256"
        },
        {
          "internalType": "bool",
          "name": "isListed",
          "type": "bool"
        }
      ],
      "stateMutability": "view",
      "type": "function"
    },
    {
      "inputs": [
        {
          "internalType": "address",
          "name": "",
          "type": "address"
        },
        {
          "internalType": "uint256",
          "name": "",
          "type": "uint256"
        }
      ],
      "name": "listingsPendingBuyerPayment",
      "outputs": [
        {
          "internalType": "uint256",
          "name": "",
          "type": "uint256"
        }
      ],
      "stateMutability": "view",
      "type": "function"
    },
    {
      "inputs": [
        {
          "internalType": "address",
          "name": "",
          "type": "address"
        },
        {
          "internalType": "uint256",
          "name": "",
          "type": "uint256"
        }
      ],
      "name": "listingsPendingInspection",
      "outputs": [
        {
          "internalType": "uint256",
          "name": "",
          "type": "uint256"
        }
      ],
      "stateMutability": "view",
      "type": "function"
    },
    {
      "inputs": [
        {
          "internalType": "address",
          "name": "",
          "type": "address"
        },
        {
          "internalType": "uint256",
          "name": "",
          "type": "uint256"
        }
      ],
      "name": "listingsPendingSale",
      "outputs": [
        {
          "internalType": "uint256",
          "name": "",
          "type": "uint256"
        }
      ],
      "stateMutability": "view",
      "type": "function"
    },
    {
      "inputs": [],
      "name": "nftAddress",
      "outputs": [
        {
          "internalType": "address",
          "name": "",
          "type": "address"
        }
      ],
      "stateMutability": "view",
      "type": "function"
    },
    {
      "inputs": [],
      "name": "owner",
      "outputs": [
        {
          "internalType": "address",
          "name": "",
          "type": "address"
        }
      ],
      "stateMutability": "view",
      "type": "function"
    },
    {
      "inputs": [
        {
          "internalType": "uint256",
          "name": "_nftID",
          "type": "uint256"
        }
      ],
      "name": "registerIntentToBuy",
      "outputs": [],
      "stateMutability": "payable",
      "type": "function"
    },
    {
      "inputs": [
        {
          "internalType": "uint256",
          "name": "_nftID",
          "type": "uint256"
        }
      ],
      "name": "rejectInspection",
      "outputs": [],
      "stateMutability": "nonpayable",
      "type": "function"
    },
    {
      "inputs": [],
      "name": "seller",
      "outputs": [
        {
          "internalType": "address payable",
          "name": "",
          "type": "address"
        }
      ],
      "stateMutability": "view",
      "type": "function"
    },
    {
      "inputs": [
        {
          "internalType": "uint256",
          "name": "_percentage",
          "type": "uint256"
        }
      ],
      "name": "setDownPaymentPercentage",
      "outputs": [],
      "stateMutability": "nonpayable",
      "type": "function"
    },
    {
      "stateMutability": "payable",
      "type": "receive"
    }
  ],
  "bytecode": "0x608060405260146006553480156200001657600080fd5b5060405162003cb838038062003cb883398181016040528101906200003c9190620003ae565b82600260006101000a81548173ffffffffffffffffffffffffffffffffffffffff021916908373ffffffffffffffffffffffffffffffffffffffff160217905550816000806101000a81548173ffffffffffffffffffffffffffffffffffffffff021916908373ffffffffffffffffffffffffffffffffffffffff16021790555080600160006101000a81548173ffffffffffffffffffffffffffffffffffffffff021916908373ffffffffffffffffffffffffffffffffffffffff16021790555033600360006101000a81548173ffffffffffffffffffffffffffffffffffffffff021916908373ffffffffffffffffffffffffffffffffffffffff160217905550600067ffffffffffffffff8111156200015d576200015c6200040a565b5b6040519080825280602002602001820160405280156200018c5781602001602082028036833780820191505090505b50600760008473ffffffffffffffffffffffffffffffffffffffff1673ffffffffffffffffffffffffffffffffffffffff1681526020019081526020016000209080519060200190620001e19291906200028e565b50600067ffffffffffffffff8111156200020057620001ff6200040a565b5b6040519080825280602002602001820160405280156200022f5781602001602082028036833780820191505090505b50600860008373ffffffffffffffffffffffffffffffffffffffff1673ffffffffffffffffffffffffffffffffffffffff1681526020019081526020016000209080519060200190620002849291906200028e565b5050505062000439565b828054828255906000526020600020908101928215620002cd579160200282015b82811115620002cc578251825591602001919060010190620002af565b5b509050620002dc9190620002e0565b5090565b5b80821115620002fb576000816000905550600101620002e1565b5090565b600080fd5b600073ffffffffffffffffffffffffffffffffffffffff82169050919050565b6000620003318262000304565b9050919050565b620003438162000324565b81146200034f57600080fd5b50565b600081519050620003638162000338565b92915050565b6000620003768262000304565b9050919050565b620003888162000369565b81146200039457600080fd5b50565b600081519050620003a8816200037d565b92915050565b600080600060608486031215620003ca57620003c9620002ff565b5b6000620003da8682870162000352565b9350506020620003ed8682870162000352565b9250506040620004008682870162000397565b9150509250925092565b7f4e487b7100000000000000000000000000000000000000000000000000000000600052604160045260246000fd5b61386f80620004496000396000f3fe60806040526004361061014f5760003560e01c80638b3f863f116100b6578063c4015f361161006f578063c4015f3614610498578063ce3149e3146104c1578063de74e57b146104fe578063e551a21414610541578063ed2cee9e1461056a578063ee84cd631461059557610156565b80638b3f863f1461036f5780638da5cb5b146103ac5780638e88fd02146103d7578063923d9db114610414578063a9b07c2614610451578063bfeee90d1461047c57610156565b806336bf25211161010857806336bf25211461025c57806350fd7367146102855780635bf8633a146102a1578063657e2d25146102cc57806368c134ea146103095780638098bbd51461033257610156565b806308551a531461015b57806312065fe01461018657806314a72feb146101b15780631b347d91146101da5780631c5d21fc146101f65780632f1248871461021f57610156565b3661015657005b600080fd5b34801561016757600080fd5b506101706105d2565b60405161017d91906128e9565b60405180910390f35b34801561019257600080fd5b5061019b6105f8565b6040516101a8919061291d565b60405180910390f35b3480156101bd57600080fd5b506101d860048036038101906101d39190612969565b610600565b005b6101f460048036038101906101ef9190612969565b610893565b005b34801561020257600080fd5b5061021d60048036038101906102189190612969565b610b03565b005b34801561022b57600080fd5b50610246600480360381019061024191906129d4565b610b9d565b6040516102539190612abf565b60405180910390f35b34801561026857600080fd5b50610283600480360381019061027e9190612969565b610c34565b005b61029f600480360381019061029a9190612ae1565b610ea9565b005b3480156102ad57600080fd5b506102b6611265565b6040516102c39190612b30565b60405180910390f35b3480156102d857600080fd5b506102f360048036038101906102ee9190612b4b565b61128b565b604051610300919061291d565b60405180910390f35b34801561031557600080fd5b50610330600480360381019061032b9190612969565b6112bc565b005b34801561033e57600080fd5b50610359600480360381019061035491906129d4565b611592565b6040516103669190612abf565b60405180910390f35b34801561037b57600080fd5b50610396600480360381019061039191906129d4565b611629565b6040516103a39190612c1b565b60405180910390f35b3480156103b857600080fd5b506103c161178b565b6040516103ce9190612b30565b60405180910390f35b3480156103e357600080fd5b506103fe60048036038101906103f99190612969565b6117b1565b60405161040b919061291d565b60405180910390f35b34801561042057600080fd5b5061043b60048036038101906104369190612b4b565b611986565b604051610448919061291d565b60405180910390f35b34801561045d57600080fd5b506104666119b7565b604051610473919061291d565b60405180910390f35b61049660048036038101906104919190612969565b6119bd565b005b3480156104a457600080fd5b506104bf60048036038101906104ba9190612969565b611ee5565b005b3480156104cd57600080fd5b506104e860048036038101906104e39190612b4b565b6121e8565b6040516104f5919061291d565b60405180910390f35b34801561050a57600080fd5b5061052560048036038101906105209190612969565b612219565b6040516105389796959493929190612cfa565b60405180910390f35b34801561054d57600080fd5b5061056860048036038101906105639190612969565b612315565b005b34801561057657600080fd5b5061057f61269b565b60405161058c9190612b30565b60405180910390f35b3480156105a157600080fd5b506105bc60048036038101906105b791906129d4565b6126bf565b6040516105c99190612abf565b60405180910390f35b600160009054906101000a900473ffffffffffffffffffffffffffffffffffffffff1681565b600047905090565b600160009054906101000a900473ffffffffffffffffffffffffffffffffffffffff1673ffffffffffffffffffffffffffffffffffffffff163373ffffffffffffffffffffffffffffffffffffffff1614610690576040517f08c379a000000000000000000000000000000000000000000000000000000000815260040161068790612ddb565b60405180910390fd5b600260048111156106a4576106a3612c3d565b5b6004600083815260200190815260200160002060000160009054906101000a900460ff1660048111156106da576106d9612c3d565b5b1461071a576040517f08c379a000000000000000000000000000000000000000000000000000000000815260040161071190612e47565b60405180910390fd5b6000600460008381526020019081526020016000209050600060086000600160009054906101000a900473ffffffffffffffffffffffffffffffffffffffff1673ffffffffffffffffffffffffffffffffffffffff1673ffffffffffffffffffffffffffffffffffffffff16815260200190815260200160002090506107a08184612756565b600960008360030160009054906101000a900473ffffffffffffffffffffffffffffffffffffffff1673ffffffffffffffffffffffffffffffffffffffff1673ffffffffffffffffffffffffffffffffffffffff16815260200190815260200160002083908060018154018082558091505060019003906000526020600020016000909190919091505560038260000160006101000a81548160ff0219169083600481111561085257610851612c3d565b5b02179055507fac25d49df59a132b27c8441b8e394485d885077f70766507575c408dafb83f3e83604051610886919061291d565b60405180910390a1505050565b600160009054906101000a900473ffffffffffffffffffffffffffffffffffffffff1673ffffffffffffffffffffffffffffffffffffffff163373ffffffffffffffffffffffffffffffffffffffff1603610923576040517f08c379a000000000000000000000000000000000000000000000000000000000815260040161091a90612eb3565b60405180910390fd5b60008054906101000a900473ffffffffffffffffffffffffffffffffffffffff1673ffffffffffffffffffffffffffffffffffffffff163373ffffffffffffffffffffffffffffffffffffffff16036109b1576040517f08c379a00000000000000000000000000000000000000000000000000000000081526004016109a890612f45565b60405180910390fd5b806004600082815260200190815260200160002060060160009054906101000a900460ff16610a15576040517f08c379a0000000000000000000000000000000000000000000000000000000008152600401610a0c90612fb1565b60405180910390fd5b60006004600084815260200190815260200160002090506000610a37846117b1565b9050803414610a7b576040517f08c379a0000000000000000000000000000000000000000000000000000000008152600401610a7290613069565b60405180910390fd5b34826005018190555060018260000160006101000a81548160ff02191690836004811115610aac57610aab612c3d565b5b0217905550338260030160006101000a81548173ffffffffffffffffffffffffffffffffffffffff021916908373ffffffffffffffffffffffffffffffffffffffff160217905550610afd8461281e565b50505050565b600360009054906101000a900473ffffffffffffffffffffffffffffffffffffffff1673ffffffffffffffffffffffffffffffffffffffff163373ffffffffffffffffffffffffffffffffffffffff1614610b93576040517f08c379a0000000000000000000000000000000000000000000000000000000008152600401610b8a906130fb565b60405180910390fd5b8060068190555050565b6060600960008373ffffffffffffffffffffffffffffffffffffffff1673ffffffffffffffffffffffffffffffffffffffff168152602001908152602001600020805480602002602001604051908101604052809291908181526020018280548015610c2857602002820191906000526020600020905b815481526020019060010190808311610c14575b50505050509050919050565b60008054906101000a900473ffffffffffffffffffffffffffffffffffffffff1673ffffffffffffffffffffffffffffffffffffffff163373ffffffffffffffffffffffffffffffffffffffff1614610cc2576040517f08c379a0000000000000000000000000000000000000000000000000000000008152600401610cb99061318d565b60405180910390fd5b600060046000838152602001908152602001600020905060016004811115610ced57610cec612c3d565b5b6004600084815260200190815260200160002060000160009054906101000a900460ff166004811115610d2357610d22612c3d565b5b14610d63576040517f08c379a0000000000000000000000000000000000000000000000000000000008152600401610d5a906131f9565b60405180910390fd5b60008160000160006101000a81548160ff02191690836004811115610d8b57610d8a612c3d565b5b02179055508060030160009054906101000a900473ffffffffffffffffffffffffffffffffffffffff1673ffffffffffffffffffffffffffffffffffffffff166108fc82600501549081150290604051600060405180830381858888f19350505050158015610dfe573d6000803e3d6000fd5b506000600760008060009054906101000a900473ffffffffffffffffffffffffffffffffffffffff1673ffffffffffffffffffffffffffffffffffffffff1673ffffffffffffffffffffffffffffffffffffffff1681526020019081526020016000209050610e6d8184612756565b7f9d523d83c17c54d27255d0ba17aeb3d7cc6d27893ed60db4b54cceb8ac327cec83604051610e9c919061291d565b60405180910390a1505050565b600160009054906101000a900473ffffffffffffffffffffffffffffffffffffffff1673ffffffffffffffffffffffffffffffffffffffff163373ffffffffffffffffffffffffffffffffffffffff1614610f39576040517f08c379a0000000000000000000000000000000000000000000000000000000008152600401610f3090612ddb565b60405180910390fd5b600260009054906101000a900473ffffffffffffffffffffffffffffffffffffffff1673ffffffffffffffffffffffffffffffffffffffff166323b872dd3330856040518463ffffffff1660e01b8152600401610f9893929190613219565b600060405180830381600087803b158015610fb257600080fd5b505af1158015610fc6573d6000803e3d6000fd5b505050506004600083815260200190815260200160002060060160009054906101000a900460ff161561102e576040517f08c379a00000000000000000000000000000000000000000000000000000000081526004016110259061329c565b60405180910390fd5b60006040518060e001604052806000600481111561104f5761104e612c3d565b5b8152602001604051806020016040528060008054906101000a900473ffffffffffffffffffffffffffffffffffffffff1673ffffffffffffffffffffffffffffffffffffffff1681525081526020013373ffffffffffffffffffffffffffffffffffffffff168152602001600073ffffffffffffffffffffffffffffffffffffffff16815260200183815260200160008152602001600115158152509050806004600085815260200190815260200160002060008201518160000160006101000a81548160ff0219169083600481111561112c5761112b612c3d565b5b021790555060208201518160010160008201518160000160006101000a81548173ffffffffffffffffffffffffffffffffffffffff021916908373ffffffffffffffffffffffffffffffffffffffff160217905550505060408201518160020160006101000a81548173ffffffffffffffffffffffffffffffffffffffff021916908373ffffffffffffffffffffffffffffffffffffffff16021790555060608201518160030160006101000a81548173ffffffffffffffffffffffffffffffffffffffff021916908373ffffffffffffffffffffffffffffffffffffffff1602179055506080820151816004015560a0820151816005015560c08201518160060160006101000a81548160ff0219169083151502179055509050506005600081548092919061125b906132eb565b9190505550505050565b600260009054906101000a900473ffffffffffffffffffffffffffffffffffffffff1681565b600760205281600052604060002081815481106112a757600080fd5b90600052602060002001600091509150505481565b60008054906101000a900473ffffffffffffffffffffffffffffffffffffffff1673ffffffffffffffffffffffffffffffffffffffff163373ffffffffffffffffffffffffffffffffffffffff161461134a576040517f08c379a00000000000000000000000000000000000000000000000000000000081526004016113419061318d565b60405180910390fd5b60006004600083815260200190815260200160002090506001600481111561137557611374612c3d565b5b6004600084815260200190815260200160002060000160009054906101000a900460ff1660048111156113ab576113aa612c3d565b5b146113eb576040517f08c379a00000000000000000000000000000000000000000000000000000000081526004016113e29061337f565b60405180910390fd5b338160010160000160006101000a81548173ffffffffffffffffffffffffffffffffffffffff021916908373ffffffffffffffffffffffffffffffffffffffff16021790555060028160000160006101000a81548160ff0219169083600481111561145957611458612c3d565b5b02179055506000600760008060009054906101000a900473ffffffffffffffffffffffffffffffffffffffff1673ffffffffffffffffffffffffffffffffffffffff1673ffffffffffffffffffffffffffffffffffffffff16815260200190815260200160002090506114cc8184612756565b600860008360020160009054906101000a900473ffffffffffffffffffffffffffffffffffffffff1673ffffffffffffffffffffffffffffffffffffffff1673ffffffffffffffffffffffffffffffffffffffff1681526020019081526020016000208390806001815401808255809150506001900390600052602060002001600090919091909150557fed69b59f90a03c7e67c4619a181862597c4f4600f7afb63f2615f30e79af68bf83604051611585919061291d565b60405180910390a1505050565b6060600860008373ffffffffffffffffffffffffffffffffffffffff1673ffffffffffffffffffffffffffffffffffffffff16815260200190815260200160002080548060200260200160405190810160405280929190818152602001828054801561161d57602002820191906000526020600020905b815481526020019060010190808311611609575b50505050509050919050565b6060600160009054906101000a900473ffffffffffffffffffffffffffffffffffffffff1673ffffffffffffffffffffffffffffffffffffffff168273ffffffffffffffffffffffffffffffffffffffff16036116bd576040518060400160405280600681526020017f53454c4c455200000000000000000000000000000000000000000000000000008152509050611786565b60008054906101000a900473ffffffffffffffffffffffffffffffffffffffff1673ffffffffffffffffffffffffffffffffffffffff168273ffffffffffffffffffffffffffffffffffffffff160361174d576040518060400160405280600981526020017f494e53504543544f5200000000000000000000000000000000000000000000008152509050611786565b6040518060400160405280600581526020017f425559455200000000000000000000000000000000000000000000000000000081525090505b919050565b600360009054906101000a900473ffffffffffffffffffffffffffffffffffffffff1681565b600080600460008481526020019081526020016000206040518060e00160405290816000820160009054906101000a900460ff1660048111156117f7576117f6612c3d565b5b600481111561180957611808612c3d565b5b8152602001600182016040518060200160405290816000820160009054906101000a900473ffffffffffffffffffffffffffffffffffffffff1673ffffffffffffffffffffffffffffffffffffffff1673ffffffffffffffffffffffffffffffffffffffff168152505081526020016002820160009054906101000a900473ffffffffffffffffffffffffffffffffffffffff1673ffffffffffffffffffffffffffffffffffffffff1673ffffffffffffffffffffffffffffffffffffffff1681526020016003820160009054906101000a900473ffffffffffffffffffffffffffffffffffffffff1673ffffffffffffffffffffffffffffffffffffffff1673ffffffffffffffffffffffffffffffffffffffff16815260200160048201548152602001600582015481526020016006820160009054906101000a900460ff1615151515815250509050600081608001519050600060646006548361196f919061339f565b6119799190613410565b9050809350505050919050565b600860205281600052604060002081815481106119a257600080fd5b90600052602060002001600091509150505481565b60055481565b600160009054906101000a900473ffffffffffffffffffffffffffffffffffffffff1673ffffffffffffffffffffffffffffffffffffffff163373ffffffffffffffffffffffffffffffffffffffff1603611a4d576040517f08c379a0000000000000000000000000000000000000000000000000000000008152600401611a4490612eb3565b60405180910390fd5b60008054906101000a900473ffffffffffffffffffffffffffffffffffffffff1673ffffffffffffffffffffffffffffffffffffffff163373ffffffffffffffffffffffffffffffffffffffff1603611adb576040517f08c379a0000000000000000000000000000000000000000000000000000000008152600401611ad290612f45565b60405180910390fd5b600060046000838152602001908152602001600020905060036004811115611b0657611b05612c3d565b5b8160000160009054906101000a900460ff166004811115611b2a57611b29612c3d565b5b14611b6a576040517f08c379a0000000000000000000000000000000000000000000000000000000008152600401611b619061348d565b60405180910390fd5b600081600501548260040154611b8091906134ad565b905080341015611bc5576040517f08c379a0000000000000000000000000000000000000000000000000000000008152600401611bbc9061352d565b60405180910390fd5b60048260000160006101000a81548160ff02191690836004811115611bed57611bec612c3d565b5b0217905550338260030160006101000a81548173ffffffffffffffffffffffffffffffffffffffff021916908373ffffffffffffffffffffffffffffffffffffffff160217905550600260009054906101000a900473ffffffffffffffffffffffffffffffffffffffff1673ffffffffffffffffffffffffffffffffffffffff166323b872dd3033866040518463ffffffff1660e01b8152600401611c9493929190613219565b600060405180830381600087803b158015611cae57600080fd5b505af1158015611cc2573d6000803e3d6000fd5b5050505060008260020160009054906101000a900473ffffffffffffffffffffffffffffffffffffffff1673ffffffffffffffffffffffffffffffffffffffff168360040154604051611d149061357e565b60006040518083038185875af1925050503d8060008114611d51576040519150601f19603f3d011682016040523d82523d6000602084013e611d56565b606091505b5050905080611d9a576040517f08c379a0000000000000000000000000000000000000000000000000000000008152600401611d9190613605565b60405180910390fd5b81341115611e5a573373ffffffffffffffffffffffffffffffffffffffff168234611dc591906134ad565b604051611dd19061357e565b60006040518083038185875af1925050503d8060008114611e0e576040519150601f19603f3d011682016040523d82523d6000602084013e611e13565b606091505b50508091505080611e59576040517f08c379a0000000000000000000000000000000000000000000000000000000008152600401611e5090613697565b60405180910390fd5b5b6000600960003373ffffffffffffffffffffffffffffffffffffffff1673ffffffffffffffffffffffffffffffffffffffff1681526020019081526020016000209050611ea78186612756565b7f6756557036e1e627ff2a1cff103a3f6f50754d34a7895080c5b028838770406085604051611ed6919061291d565b60405180910390a15050505050565b600160009054906101000a900473ffffffffffffffffffffffffffffffffffffffff1673ffffffffffffffffffffffffffffffffffffffff163373ffffffffffffffffffffffffffffffffffffffff1614611f75576040517f08c379a0000000000000000000000000000000000000000000000000000000008152600401611f6c90612ddb565b60405180910390fd5b60026004811115611f8957611f88612c3d565b5b6004600083815260200190815260200160002060000160009054906101000a900460ff166004811115611fbf57611fbe612c3d565b5b14611fff576040517f08c379a0000000000000000000000000000000000000000000000000000000008152600401611ff690612e47565b60405180910390fd5b60006004600083815260200190815260200160002090508060030160009054906101000a900473ffffffffffffffffffffffffffffffffffffffff1673ffffffffffffffffffffffffffffffffffffffff166108fc82600501549081150290604051600060405180830381858888f19350505050158015612084573d6000803e3d6000fd5b5060008160010160000160006101000a81548173ffffffffffffffffffffffffffffffffffffffff021916908373ffffffffffffffffffffffffffffffffffffffff16021790555060008160000160006101000a81548160ff021916908360048111156120f4576120f3612c3d565b5b021790555060008160030160006101000a81548173ffffffffffffffffffffffffffffffffffffffff021916908373ffffffffffffffffffffffffffffffffffffffff160217905550600060086000600160009054906101000a900473ffffffffffffffffffffffffffffffffffffffff1673ffffffffffffffffffffffffffffffffffffffff1673ffffffffffffffffffffffffffffffffffffffff16815260200190815260200160002090506121ac8184612756565b7fc14207a2f80d7c19c9a876ed655ac6b65937da984c46122ff7370cfdb3ee8290836040516121db919061291d565b60405180910390a1505050565b6009602052816000526040600020818154811061220457600080fd5b90600052602060002001600091509150505481565b60046020528060005260406000206000915090508060000160009054906101000a900460ff1690806001016040518060200160405290816000820160009054906101000a900473ffffffffffffffffffffffffffffffffffffffff1673ffffffffffffffffffffffffffffffffffffffff1673ffffffffffffffffffffffffffffffffffffffff1681525050908060020160009054906101000a900473ffffffffffffffffffffffffffffffffffffffff16908060030160009054906101000a900473ffffffffffffffffffffffffffffffffffffffff16908060040154908060050154908060060160009054906101000a900460ff16905087565b600160009054906101000a900473ffffffffffffffffffffffffffffffffffffffff1673ffffffffffffffffffffffffffffffffffffffff163373ffffffffffffffffffffffffffffffffffffffff16036123a5576040517f08c379a000000000000000000000000000000000000000000000000000000000815260040161239c90612eb3565b60405180910390fd5b60008054906101000a900473ffffffffffffffffffffffffffffffffffffffff1673ffffffffffffffffffffffffffffffffffffffff163373ffffffffffffffffffffffffffffffffffffffff1603612433576040517f08c379a000000000000000000000000000000000000000000000000000000000815260040161242a90612f45565b60405180910390fd5b60006004600083815260200190815260200160002090506003600481111561245e5761245d612c3d565b5b8160000160009054906101000a900460ff16600481111561248257612481612c3d565b5b146124c2576040517f08c379a00000000000000000000000000000000000000000000000000000000081526004016124b990613729565b60405180910390fd5b60008160000160006101000a81548160ff021916908360048111156124ea576124e9612c3d565b5b02179055506000816005018190555060008160030160006101000a81548173ffffffffffffffffffffffffffffffffffffffff021916908373ffffffffffffffffffffffffffffffffffffffff16021790555060008160030160009054906101000a900473ffffffffffffffffffffffffffffffffffffffff1673ffffffffffffffffffffffffffffffffffffffff16826005015460405161258b9061357e565b60006040518083038185875af1925050503d80600081146125c8576040519150601f19603f3d011682016040523d82523d6000602084013e6125cd565b606091505b5050905080612611576040517f08c379a0000000000000000000000000000000000000000000000000000000008152600401612608906137bb565b60405180910390fd5b6000600960003373ffffffffffffffffffffffffffffffffffffffff1673ffffffffffffffffffffffffffffffffffffffff168152602001908152602001600020905061265e8185612756565b7f11ca5772de5d9f286b411610464aadf2373a8e104087b6d4b8fc85c1ce7e46cb8460405161268d919061291d565b60405180910390a150505050565b60008054906101000a900473ffffffffffffffffffffffffffffffffffffffff1681565b6060600760008373ffffffffffffffffffffffffffffffffffffffff1673ffffffffffffffffffffffffffffffffffffffff16815260200190815260200160002080548060200260200160405190810160405280929190818152602001828054801561274a57602002820191906000526020600020905b815481526020019060010190808311612736575b50505050509050919050565b60008280549050905060005b81811015612818578284828154811061277e5761277d6137db565b5b906000526020600020015403612805578360018361279c91906134ad565b815481106127ad576127ac6137db565b5b90600052602060002001548482815481106127cb576127ca6137db565b5b9060005260206000200181905550838054806127ea576127e961380a565b5b60019003818190600052602060002001600090559055612818565b8080612810906132eb565b915050612762565b50505050565b600760008060009054906101000a900473ffffffffffffffffffffffffffffffffffffffff1673ffffffffffffffffffffffffffffffffffffffff1673ffffffffffffffffffffffffffffffffffffffff16815260200190815260200160002081908060018154018082558091505060019003906000526020600020016000909190919091505550565b600073ffffffffffffffffffffffffffffffffffffffff82169050919050565b60006128d3826128a8565b9050919050565b6128e3816128c8565b82525050565b60006020820190506128fe60008301846128da565b92915050565b6000819050919050565b61291781612904565b82525050565b6000602082019050612932600083018461290e565b92915050565b600080fd5b61294681612904565b811461295157600080fd5b50565b6000813590506129638161293d565b92915050565b60006020828403121561297f5761297e612938565b5b600061298d84828501612954565b91505092915050565b60006129a1826128a8565b9050919050565b6129b181612996565b81146129bc57600080fd5b50565b6000813590506129ce816129a8565b92915050565b6000602082840312156129ea576129e9612938565b5b60006129f8848285016129bf565b91505092915050565b600081519050919050565b600082825260208201905092915050565b6000819050602082019050919050565b612a3681612904565b82525050565b6000612a488383612a2d565b60208301905092915050565b6000602082019050919050565b6000612a6c82612a01565b612a768185612a0c565b9350612a8183612a1d565b8060005b83811015612ab2578151612a998882612a3c565b9750612aa483612a54565b925050600181019050612a85565b5085935050505092915050565b60006020820190508181036000830152612ad98184612a61565b905092915050565b60008060408385031215612af857612af7612938565b5b6000612b0685828601612954565b9250506020612b1785828601612954565b9150509250929050565b612b2a81612996565b82525050565b6000602082019050612b456000830184612b21565b92915050565b60008060408385031215612b6257612b61612938565b5b6000612b70858286016129bf565b9250506020612b8185828601612954565b9150509250929050565b600081519050919050565b600082825260208201905092915050565b60005b83811015612bc5578082015181840152602081019050612baa565b60008484015250505050565b6000601f19601f8301169050919050565b6000612bed82612b8b565b612bf78185612b96565b9350612c07818560208601612ba7565b612c1081612bd1565b840191505092915050565b60006020820190508181036000830152612c358184612be2565b905092915050565b7f4e487b7100000000000000000000000000000000000000000000000000000000600052602160045260246000fd5b60058110612c7d57612c7c612c3d565b5b50565b6000819050612c8e82612c6c565b919050565b6000612c9e82612c80565b9050919050565b612cae81612c93565b82525050565b612cbd81612996565b82525050565b602082016000820151612cd96000850182612cb4565b50505050565b60008115159050919050565b612cf481612cdf565b82525050565b600060e082019050612d0f600083018a612ca5565b612d1c6020830189612cc3565b612d296040830188612b21565b612d366060830187612b21565b612d43608083018661290e565b612d5060a083018561290e565b612d5d60c0830184612ceb565b98975050505050505050565b7f4f6e6c792073656c6c65722063616e2063616c6c20746869732066756e63746960008201527f6f6e000000000000000000000000000000000000000000000000000000000000602082015250565b6000612dc5602283612b96565b9150612dd082612d69565b604082019050919050565b60006020820190508181036000830152612df481612db8565b9050919050565b7f496e7370656374696f6e206973206e6f7420617070726f766564000000000000600082015250565b6000612e31601a83612b96565b9150612e3c82612dfb565b602082019050919050565b60006020820190508181036000830152612e6081612e24565b9050919050565b7f53656c6c65722063616e6e6f742063616c6c20746869732066756e6374696f6e600082015250565b6000612e9d602083612b96565b9150612ea882612e67565b602082019050919050565b60006020820190508181036000830152612ecc81612e90565b9050919050565b7f496e73706563746f722063616e6e6f742063616c6c20746869732066756e637460008201527f696f6e0000000000000000000000000000000000000000000000000000000000602082015250565b6000612f2f602383612b96565b9150612f3a82612ed3565b604082019050919050565b60006020820190508181036000830152612f5e81612f22565b9050919050565b7f4e4654206973206e6f74206c6973746564000000000000000000000000000000600082015250565b6000612f9b601183612b96565b9150612fa682612f65565b602082019050919050565b60006020820190508181036000830152612fca81612f8e565b9050919050565b7f596f7520646f6e2774206861766520656e6f756768742066756e647320746f2060008201527f6d616b65206120646f776e7061796d656e7420666f7220746869732070726f7060208201527f657274792e000000000000000000000000000000000000000000000000000000604082015250565b6000613053604583612b96565b915061305e82612fd1565b606082019050919050565b6000602082019050818103600083015261308281613046565b9050919050565b7f4f6e6c79206f776e65722063616e2063616c6c20746869732066756e6374696f60008201527f6e00000000000000000000000000000000000000000000000000000000000000602082015250565b60006130e5602183612b96565b91506130f082613089565b604082019050919050565b60006020820190508181036000830152613114816130d8565b9050919050565b7f4f6e6c7920696e73706563746f722063616e2063616c6c20746869732066756e60008201527f6374696f6e000000000000000000000000000000000000000000000000000000602082015250565b6000613177602583612b96565b91506131828261311b565b604082019050919050565b600060208201905081810360008301526131a68161316a565b9050919050565b7f496e7370656374696f6e206973206e6f742070656e64696e6700000000000000600082015250565b60006131e3601983612b96565b91506131ee826131ad565b602082019050919050565b60006020820190508181036000830152613212816131d6565b9050919050565b600060608201905061322e6000830186612b21565b61323b6020830185612b21565b613248604083018461290e565b949350505050565b7f4e465420697320616c7265616479206c69737465640000000000000000000000600082015250565b6000613286601583612b96565b915061329182613250565b602082019050919050565b600060208201905081810360008301526132b581613279565b9050919050565b7f4e487b7100000000000000000000000000000000000000000000000000000000600052601160045260246000fd5b60006132f682612904565b91507fffffffffffffffffffffffffffffffffffffffffffffffffffffffffffffffff8203613328576133276132bc565b5b600182019050919050565b7f496e7370656374696f6e206973206e6f742070656e64696e672e000000000000600082015250565b6000613369601a83612b96565b915061337482613333565b602082019050919050565b600060208201905081810360008301526133988161335c565b9050919050565b60006133aa82612904565b91506133b583612904565b92508282026133c381612904565b915082820484148315176133da576133d96132bc565b5b5092915050565b7f4e487b7100000000000000000000000000000000000000000000000000000000600052601260045260246000fd5b600061341b82612904565b915061342683612904565b925082613436576134356133e1565b5b828204905092915050565b7f4c697374696e67206e6f7420617070726f7665642062792073656c6c65722e00600082015250565b6000613477601f83612b96565b915061348282613441565b602082019050919050565b600060208201905081810360008301526134a68161346a565b9050919050565b60006134b882612904565b91506134c383612904565b92508282039050818111156134db576134da6132bc565b5b92915050565b7f496e73756666696369656e742066756e64732073656e742e0000000000000000600082015250565b6000613517601883612b96565b9150613522826134e1565b602082019050919050565b600060208201905081810360008301526135468161350a565b9050919050565b600081905092915050565b50565b600061356860008361354d565b915061357382613558565b600082019050919050565b60006135898261355b565b9150819050919050565b7f4661696c656420746f2073656e6420457468657220746f207468652073656c6c60008201527f6572000000000000000000000000000000000000000000000000000000000000602082015250565b60006135ef602283612b96565b91506135fa82613593565b604082019050919050565b6000602082019050818103600083015261361e816135e2565b9050919050565b7f4661696c656420746f20726566756e642065786365737320457468657220746f60008201527f2074686520627579657200000000000000000000000000000000000000000000602082015250565b6000613681602a83612b96565b915061368c82613625565b604082019050919050565b600060208201905081810360008301526136b081613674565b9050919050565b7f4f6e6c7920617070726f766564206c697374696e67732063616e20626520646560008201527f636c696e65642e00000000000000000000000000000000000000000000000000602082015250565b6000613713602783612b96565b915061371e826136b7565b604082019050919050565b6000602082019050818103600083015261374281613706565b9050919050565b7f4661696c656420746f20726566756e6420646f776e207061796d656e7420746f60008201527f2074686520627579657200000000000000000000000000000000000000000000602082015250565b60006137a5602a83612b96565b91506137b082613749565b604082019050919050565b600060208201905081810360008301526137d481613798565b9050919050565b7f4e487b7100000000000000000000000000000000000000000000000000000000600052603260045260246000fd5b7f4e487b7100000000000000000000000000000000000000000000000000000000600052603160045260246000fdfea26469706673582212204e0645a5a0765023d8c8011a168375b3e9e7418b0a9329471f28f48aec790e3464736f6c63430008110033",
  "linkReferences": {},
  "deployedLinkReferences": {}
}